{
  "contractName": "Charity",
  "abi": [
    {
      "anonymous": false,
      "inputs": [
        {
          "indexed": true,
          "internalType": "uint256",
          "name": "_auctionId",
          "type": "uint256"
        }
      ],
      "name": "auctionCreated",
      "type": "event"
    },
    {
      "anonymous": false,
      "inputs": [
        {
          "indexed": true,
          "internalType": "uint256",
          "name": "_bidId",
          "type": "uint256"
        }
      ],
      "name": "bidCreated",
      "type": "event"
    },
    {
      "anonymous": false,
      "inputs": [
        {
          "indexed": true,
          "internalType": "uint256",
          "name": "_userId",
          "type": "uint256"
        }
      ],
      "name": "userCreated",
      "type": "event"
    },
    {
      "inputs": [],
      "name": "auctionCount",
      "outputs": [
        {
          "internalType": "uint256",
          "name": "",
          "type": "uint256"
        }
      ],
      "stateMutability": "view",
      "type": "function",
      "constant": true
    },
    {
      "inputs": [
        {
          "internalType": "uint256",
          "name": "",
          "type": "uint256"
        }
      ],
      "name": "auctionList",
      "outputs": [
        {
          "internalType": "string",
          "name": "auctioner_name",
          "type": "string"
        },
        {
          "internalType": "string",
          "name": "auction_id",
          "type": "string"
        },
        {
          "internalType": "string",
          "name": "auction_details",
          "type": "string"
        },
        {
          "internalType": "string",
          "name": "minimum_amount",
          "type": "string"
        },
        {
          "internalType": "string",
          "name": "start_date",
          "type": "string"
        },
        {
          "internalType": "string",
          "name": "end_date",
          "type": "string"
        },
        {
          "internalType": "string",
          "name": "auction_category",
          "type": "string"
        }
      ],
      "stateMutability": "view",
      "type": "function",
      "constant": true
    },
    {
      "inputs": [],
      "name": "bidCount",
      "outputs": [
        {
          "internalType": "uint256",
          "name": "",
          "type": "uint256"
        }
      ],
      "stateMutability": "view",
      "type": "function",
      "constant": true
    },
    {
      "inputs": [
        {
          "internalType": "uint256",
          "name": "",
          "type": "uint256"
        }
      ],
      "name": "bidList",
      "outputs": [
        {
          "internalType": "string",
          "name": "auction_id",
          "type": "string"
        },
        {
          "internalType": "string",
          "name": "bidder",
          "type": "string"
        },
        {
          "internalType": "string",
          "name": "amount",
          "type": "string"
        },
        {
          "internalType": "string",
          "name": "bid_date",
          "type": "string"
        },
        {
          "internalType": "string",
          "name": "transaction_type",
          "type": "string"
        }
      ],
      "stateMutability": "view",
      "type": "function",
      "constant": true
    },
    {
      "inputs": [],
      "name": "userCount",
      "outputs": [
        {
          "internalType": "uint256",
          "name": "",
          "type": "uint256"
        }
      ],
      "stateMutability": "view",
      "type": "function",
      "constant": true
    },
    {
      "inputs": [
        {
          "internalType": "uint256",
          "name": "",
          "type": "uint256"
        }
      ],
      "name": "userList",
      "outputs": [
        {
          "internalType": "string",
          "name": "person_name",
          "type": "string"
        },
        {
          "internalType": "string",
          "name": "phone",
          "type": "string"
        },
        {
          "internalType": "string",
          "name": "email",
          "type": "string"
        },
        {
          "internalType": "string",
          "name": "password",
          "type": "string"
        },
        {
          "internalType": "string",
          "name": "user_type",
          "type": "string"
        }
      ],
      "stateMutability": "view",
      "type": "function",
      "constant": true
    },
    {
      "inputs": [
        {
          "internalType": "string",
          "name": "pname",
          "type": "string"
        },
        {
          "internalType": "string",
          "name": "phone",
          "type": "string"
        },
        {
          "internalType": "string",
          "name": "email",
          "type": "string"
        },
        {
          "internalType": "string",
          "name": "pass",
          "type": "string"
        },
        {
          "internalType": "string",
          "name": "ut",
          "type": "string"
        }
      ],
      "name": "saveUser",
      "outputs": [],
      "stateMutability": "nonpayable",
      "type": "function"
    },
    {
      "inputs": [],
      "name": "getUserCount",
      "outputs": [
        {
          "internalType": "uint256",
          "name": "",
          "type": "uint256"
        }
      ],
      "stateMutability": "view",
      "type": "function",
      "constant": true
    },
    {
      "inputs": [
        {
          "internalType": "string",
          "name": "aname",
          "type": "string"
        },
        {
          "internalType": "string",
          "name": "aid",
          "type": "string"
        },
        {
          "internalType": "string",
          "name": "ad",
          "type": "string"
        },
        {
          "internalType": "string",
          "name": "ma",
          "type": "string"
        },
        {
          "internalType": "string",
          "name": "sd",
          "type": "string"
        },
        {
          "internalType": "string",
          "name": "edate",
          "type": "string"
        },
        {
          "internalType": "string",
          "name": "cat",
          "type": "string"
        }
      ],
      "name": "saveAuction",
      "outputs": [],
      "stateMutability": "nonpayable",
      "type": "function"
    },
    {
      "inputs": [],
      "name": "getAuctionCount",
      "outputs": [
        {
          "internalType": "uint256",
          "name": "",
          "type": "uint256"
        }
      ],
      "stateMutability": "view",
      "type": "function",
      "constant": true
    },
    {
      "inputs": [
        {
          "internalType": "string",
          "name": "aid",
          "type": "string"
        },
        {
          "internalType": "string",
          "name": "bidder_name",
          "type": "string"
        },
        {
          "internalType": "string",
          "name": "bid_amount",
          "type": "string"
        },
        {
          "internalType": "string",
          "name": "bidding_date",
          "type": "string"
        },
        {
          "internalType": "string",
          "name": "ttype",
          "type": "string"
        }
      ],
      "name": "saveBid",
      "outputs": [],
      "stateMutability": "nonpayable",
      "type": "function"
    },
    {
      "inputs": [],
      "name": "getBidCount",
      "outputs": [
        {
          "internalType": "uint256",
          "name": "",
          "type": "uint256"
        }
      ],
      "stateMutability": "view",
      "type": "function",
      "constant": true
    },
    {
      "inputs": [
        {
          "internalType": "uint256",
          "name": "i",
          "type": "uint256"
        }
      ],
      "name": "getPersonname",
      "outputs": [
        {
          "internalType": "string",
          "name": "",
          "type": "string"
        }
      ],
      "stateMutability": "view",
      "type": "function",
      "constant": true
    },
    {
      "inputs": [
        {
          "internalType": "uint256",
          "name": "i",
          "type": "uint256"
        }
      ],
      "name": "getPassword",
      "outputs": [
        {
          "internalType": "string",
          "name": "",
          "type": "string"
        }
      ],
      "stateMutability": "view",
      "type": "function",
      "constant": true
    },
    {
      "inputs": [
        {
          "internalType": "uint256",
          "name": "i",
          "type": "uint256"
        }
      ],
      "name": "getPhone",
      "outputs": [
        {
          "internalType": "string",
          "name": "",
          "type": "string"
        }
      ],
      "stateMutability": "view",
      "type": "function",
      "constant": true
    },
    {
      "inputs": [
        {
          "internalType": "uint256",
          "name": "i",
          "type": "uint256"
        }
      ],
      "name": "getEmail",
      "outputs": [
        {
          "internalType": "string",
          "name": "",
          "type": "string"
        }
      ],
      "stateMutability": "view",
      "type": "function",
      "constant": true
    },
    {
      "inputs": [
        {
          "internalType": "uint256",
          "name": "i",
          "type": "uint256"
        }
      ],
      "name": "getUserType",
      "outputs": [
        {
          "internalType": "string",
          "name": "",
          "type": "string"
        }
      ],
      "stateMutability": "view",
      "type": "function",
      "constant": true
    },
    {
      "inputs": [
        {
          "internalType": "uint256",
          "name": "i",
          "type": "uint256"
        }
      ],
      "name": "getAuctionName",
      "outputs": [
        {
          "internalType": "string",
          "name": "",
          "type": "string"
        }
      ],
      "stateMutability": "view",
      "type": "function",
      "constant": true
    },
    {
      "inputs": [
        {
          "internalType": "uint256",
          "name": "i",
          "type": "uint256"
        }
      ],
      "name": "getAuctionId",
      "outputs": [
        {
          "internalType": "string",
          "name": "",
          "type": "string"
        }
      ],
      "stateMutability": "view",
      "type": "function",
      "constant": true
    },
    {
      "inputs": [
        {
          "internalType": "uint256",
          "name": "i",
          "type": "uint256"
        }
      ],
      "name": "getAuctionDetails",
      "outputs": [
        {
          "internalType": "string",
          "name": "",
          "type": "string"
        }
      ],
      "stateMutability": "view",
      "type": "function",
      "constant": true
    },
    {
      "inputs": [
        {
          "internalType": "uint256",
          "name": "i",
          "type": "uint256"
        }
      ],
      "name": "getMinimumAmount",
      "outputs": [
        {
          "internalType": "string",
          "name": "",
          "type": "string"
        }
      ],
      "stateMutability": "view",
      "type": "function",
      "constant": true
    },
    {
      "inputs": [
        {
          "internalType": "uint256",
          "name": "i",
          "type": "uint256"
        }
      ],
      "name": "getStartDate",
      "outputs": [
        {
          "internalType": "string",
          "name": "",
          "type": "string"
        }
      ],
      "stateMutability": "view",
      "type": "function",
      "constant": true
    },
    {
      "inputs": [
        {
          "internalType": "uint256",
          "name": "i",
          "type": "uint256"
        }
      ],
      "name": "getEnddate",
      "outputs": [
        {
          "internalType": "string",
          "name": "",
          "type": "string"
        }
      ],
      "stateMutability": "view",
      "type": "function",
      "constant": true
    },
    {
      "inputs": [
        {
          "internalType": "uint256",
          "name": "i",
          "type": "uint256"
        }
      ],
      "name": "getCategory",
      "outputs": [
        {
          "internalType": "string",
          "name": "",
          "type": "string"
        }
      ],
      "stateMutability": "view",
      "type": "function",
      "constant": true
    },
    {
      "inputs": [
        {
          "internalType": "uint256",
          "name": "i",
          "type": "uint256"
        }
      ],
      "name": "getBidAuctionId",
      "outputs": [
        {
          "internalType": "string",
          "name": "",
          "type": "string"
        }
      ],
      "stateMutability": "view",
      "type": "function",
      "constant": true
    },
    {
      "inputs": [
        {
          "internalType": "uint256",
          "name": "i",
          "type": "uint256"
        }
      ],
      "name": "getBidder",
      "outputs": [
        {
          "internalType": "string",
          "name": "",
          "type": "string"
        }
      ],
      "stateMutability": "view",
      "type": "function",
      "constant": true
    },
    {
      "inputs": [
        {
          "internalType": "uint256",
          "name": "i",
          "type": "uint256"
        }
      ],
      "name": "getAmount",
      "outputs": [
        {
          "internalType": "string",
          "name": "",
          "type": "string"
        }
      ],
      "stateMutability": "view",
      "type": "function",
      "constant": true
    },
    {
      "inputs": [
        {
          "internalType": "uint256",
          "name": "i",
          "type": "uint256"
        }
      ],
      "name": "getBidDate",
      "outputs": [
        {
          "internalType": "string",
          "name": "",
          "type": "string"
        }
      ],
      "stateMutability": "view",
      "type": "function",
      "constant": true
    },
    {
      "inputs": [
        {
          "internalType": "uint256",
          "name": "i",
          "type": "uint256"
        }
      ],
      "name": "getTransactionType",
      "outputs": [
        {
          "internalType": "string",
          "name": "",
          "type": "string"
        }
      ],
      "stateMutability": "view",
      "type": "function",
      "constant": true
    }
  ],
  "bytecode": "0x6080604052600080556000600255600060045534801561001e57600080fd5b50613e7a8061002e6000396000f3fe608060405234801561001057600080fd5b50600436106101ec576000357c0100000000000000000000000000000000000000000000000000000000900480639956203711610121578063c44e6640116100bf578063f20e5e351161008e578063f20e5e35146103d3578063f3052d26146103e6578063f38c6bb6146103f9578063fbed854a1461040c57600080fd5b8063c44e664014610392578063c7cf50be1461039a578063e09576f0146103ad578063e9a6f346146103c057600080fd5b8063b40a5627116100fb578063b40a56271461035b578063b5cb15f714610364578063ba92763a1461036c578063c37fd7491461037f57600080fd5b806399562037146103115780639980ec86146103355780639f4216e81461034857600080fd5b80632e7d44b51161018e578063795042f711610168578063795042f7146102c55780637af22e4f146102d8578063865109f2146102eb578063972fe8bc146102fe57600080fd5b80632e7d44b5146102775780633f29468a1461028a578063669c00831461029f57600080fd5b80631491420c116101ca5780631491420c146102405780631aa6558f1461025357806328f6a48a146102665780632ad715731461026e57600080fd5b806307973ccf146101f157806312f4ea2e1461020d57806313f58f711461022d575b600080fd5b6101fa60005481565b6040519081526020015b60405180910390f35b61022061021b366004613981565b61041f565b60405161020491906139e7565b61022061023b366004613981565b61084b565b61022061024e366004613981565b610b53565b610220610261366004613981565b610f7d565b6004546101fa565b6101fa60025481565b610220610285366004613981565b6111f7565b61029d610298366004613abd565b611471565b005b6102b26102ad366004613981565b611579565b6040516102049796959493929190613b8f565b6102206102d3366004613981565b61196b565b6102206102e6366004613981565b611c73565b6102206102f9366004613981565b611ca5565b61022061030c366004613981565b611cd7565b61032461031f366004613981565b611fdf565b604051610204959493929190613c26565b610220610343366004613981565b6122b5565b610324610356366004613981565b6122e7565b6101fa60045481565b6000546101fa565b61022061037a366004613981565b612302565b61022061038d366004613981565b6126a0565b6002546101fa565b6102206103a8366004613981565b612a3e565b6102206103bb366004613981565b612e6a565b61029d6103ce366004613abd565b612e9c565b6102206103e1366004613981565b612f94565b6102206103f4366004613981565b613332565b610220610407366004613981565b61375e565b61029d61041a366004613c93565b613790565b60606000600360008481526020019081526020016000206040518060e001604052908160008201805461045190613dae565b80601f016020809104026020016040519081016040528092919081815260200182805461047d90613dae565b80156104ca5780601f1061049f576101008083540402835291602001916104ca565b820191906000526020600020905b8154815290600101906020018083116104ad57829003601f168201915b505050505081526020016001820180546104e390613dae565b80601f016020809104026020016040519081016040528092919081815260200182805461050f90613dae565b801561055c5780601f106105315761010080835404028352916020019161055c565b820191906000526020600020905b81548152906001019060200180831161053f57829003601f168201915b5050505050815260200160028201805461057590613dae565b80601f01602080910402602001604051908101604052809291908181526020018280546105a190613dae565b80156105ee5780601f106105c3576101008083540402835291602001916105ee565b820191906000526020600020905b8154815290600101906020018083116105d157829003601f168201915b5050505050815260200160038201805461060790613dae565b80601f016020809104026020016040519081016040528092919081815260200182805461063390613dae565b80156106805780601f1061065557610100808354040283529160200191610680565b820191906000526020600020905b81548152906001019060200180831161066357829003601f168201915b5050505050815260200160048201805461069990613dae565b80601f01602080910402602001604051908101604052809291908181526020018280546106c590613dae565b80156107125780601f106106e757610100808354040283529160200191610712565b820191906000526020600020905b8154815290600101906020018083116106f557829003601f168201915b5050505050815260200160058201805461072b90613dae565b80601f016020809104026020016040519081016040528092919081815260200182805461075790613dae565b80156107a45780601f10610779576101008083540402835291602001916107a4565b820191906000526020600020905b81548152906001019060200180831161078757829003601f168201915b505050505081526020016006820180546107bd90613dae565b80601f01602080910402602001604051908101604052809291908181526020018280546107e990613dae565b80156108365780601f1061080b57610100808354040283529160200191610836565b820191906000526020600020905b81548152906001019060200180831161081957829003601f168201915b50505091909252505050602001519392505050565b60606000600160008481526020019081526020016000206040518060a001604052908160008201805461087d90613dae565b80601f01602080910402602001604051908101604052809291908181526020018280546108a990613dae565b80156108f65780601f106108cb576101008083540402835291602001916108f6565b820191906000526020600020905b8154815290600101906020018083116108d957829003601f168201915b5050505050815260200160018201805461090f90613dae565b80601f016020809104026020016040519081016040528092919081815260200182805461093b90613dae565b80156109885780601f1061095d57610100808354040283529160200191610988565b820191906000526020600020905b81548152906001019060200180831161096b57829003601f168201915b505050505081526020016002820180546109a190613dae565b80601f01602080910402602001604051908101604052809291908181526020018280546109cd90613dae565b8015610a1a5780601f106109ef57610100808354040283529160200191610a1a565b820191906000526020600020905b8154815290600101906020018083116109fd57829003601f168201915b50505050508152602001600382018054610a3390613dae565b80601f0160208091040260200160405190810160405280929190818152602001828054610a5f90613dae565b8015610aac5780601f10610a8157610100808354040283529160200191610aac565b820191906000526020600020905b815481529060010190602001808311610a8f57829003601f168201915b50505050508152602001600482018054610ac590613dae565b80601f0160208091040260200160405190810160405280929190818152602001828054610af190613dae565b8015610b3e5780601f10610b1357610100808354040283529160200191610b3e565b820191906000526020600020905b815481529060010190602001808311610b2157829003601f168201915b50505091909252505050608001519392505050565b60606000600360008481526020019081526020016000206040518060e0016040529081600082018054610b8590613dae565b80601f0160208091040260200160405190810160405280929190818152602001828054610bb190613dae565b8015610bfe5780601f10610bd357610100808354040283529160200191610bfe565b820191906000526020600020905b815481529060010190602001808311610be157829003601f168201915b50505050508152602001600182018054610c1790613dae565b80601f0160208091040260200160405190810160405280929190818152602001828054610c4390613dae565b8015610c905780601f10610c6557610100808354040283529160200191610c90565b820191906000526020600020905b815481529060010190602001808311610c7357829003601f168201915b50505050508152602001600282018054610ca990613dae565b80601f0160208091040260200160405190810160405280929190818152602001828054610cd590613dae565b8015610d225780601f10610cf757610100808354040283529160200191610d22565b820191906000526020600020905b815481529060010190602001808311610d0557829003601f168201915b50505050508152602001600382018054610d3b90613dae565b80601f0160208091040260200160405190810160405280929190818152602001828054610d6790613dae565b8015610db45780601f10610d8957610100808354040283529160200191610db4565b820191906000526020600020905b815481529060010190602001808311610d9757829003601f168201915b50505050508152602001600482018054610dcd90613dae565b80601f0160208091040260200160405190810160405280929190818152602001828054610df990613dae565b8015610e465780601f10610e1b57610100808354040283529160200191610e46565b820191906000526020600020905b815481529060010190602001808311610e2957829003601f168201915b50505050508152602001600582018054610e5f90613dae565b80601f0160208091040260200160405190810160405280929190818152602001828054610e8b90613dae565b8015610ed85780601f10610ead57610100808354040283529160200191610ed8565b820191906000526020600020905b815481529060010190602001808311610ebb57829003601f168201915b50505050508152602001600682018054610ef190613dae565b80601f0160208091040260200160405190810160405280929190818152602001828054610f1d90613dae565b8015610f6a5780601f10610f3f57610100808354040283529160200191610f6a565b820191906000526020600020905b815481529060010190602001808311610f4d57829003601f168201915b5050509190925250509051949350505050565b60606000600560008481526020019081526020016000206040518060a0016040529081600082018054610faf90613dae565b80601f0160208091040260200160405190810160405280929190818152602001828054610fdb90613dae565b80156110285780601f10610ffd57610100808354040283529160200191611028565b820191906000526020600020905b81548152906001019060200180831161100b57829003601f168201915b5050505050815260200160018201805461104190613dae565b80601f016020809104026020016040519081016040528092919081815260200182805461106d90613dae565b80156110ba5780601f1061108f576101008083540402835291602001916110ba565b820191906000526020600020905b81548152906001019060200180831161109d57829003601f168201915b505050505081526020016002820180546110d390613dae565b80601f01602080910402602001604051908101604052809291908181526020018280546110ff90613dae565b801561114c5780601f106111215761010080835404028352916020019161114c565b820191906000526020600020905b81548152906001019060200180831161112f57829003601f168201915b5050505050815260200160038201805461116590613dae565b80601f016020809104026020016040519081016040528092919081815260200182805461119190613dae565b80156111de5780601f106111b3576101008083540402835291602001916111de565b820191906000526020600020905b8154815290600101906020018083116111c157829003601f168201915b50505050508152602001600482018054610ef190613dae565b60606000600160008481526020019081526020016000206040518060a001604052908160008201805461122990613dae565b80601f016020809104026020016040519081016040528092919081815260200182805461125590613dae565b80156112a25780601f10611277576101008083540402835291602001916112a2565b820191906000526020600020905b81548152906001019060200180831161128557829003601f168201915b505050505081526020016001820180546112bb90613dae565b80601f01602080910402602001604051908101604052809291908181526020018280546112e790613dae565b80156113345780601f1061130957610100808354040283529160200191611334565b820191906000526020600020905b81548152906001019060200180831161131757829003601f168201915b5050505050815260200160028201805461134d90613dae565b80601f016020809104026020016040519081016040528092919081815260200182805461137990613dae565b80156113c65780601f1061139b576101008083540402835291602001916113c6565b820191906000526020600020905b8154815290600101906020018083116113a957829003601f168201915b505050505081526020016003820180546113df90613dae565b80601f016020809104026020016040519081016040528092919081815260200182805461140b90613dae565b80156114585780601f1061142d57610100808354040283529160200191611458565b820191906000526020600020905b81548152906001019060200180831161143b57829003601f168201915b505050505081526020016004820180546107bd90613dae565b6040805160a081018252868152602080820187905281830186905260608201859052608082018490526004546000908152600582529290922081518051929391926114bf92849201906138e8565b5060208281015180516114d892600185019201906138e8565b50604082015180516114f49160028401916020909101906138e8565b50606082015180516115109160038401916020909101906138e8565b506080820151805161152c9160048401916020909101906138e8565b50506004546040519091507fe42bf53bb81643df97bd6fccb2ef58866220b29ae0d45e766b99549efd27727e90600090a26004805490600061156d83613e02565b91905055505050505050565b60036020526000908152604090208054819061159490613dae565b80601f01602080910402602001604051908101604052809291908181526020018280546115c090613dae565b801561160d5780601f106115e25761010080835404028352916020019161160d565b820191906000526020600020905b8154815290600101906020018083116115f057829003601f168201915b50505050509080600101805461162290613dae565b80601f016020809104026020016040519081016040528092919081815260200182805461164e90613dae565b801561169b5780601f106116705761010080835404028352916020019161169b565b820191906000526020600020905b81548152906001019060200180831161167e57829003601f168201915b5050505050908060020180546116b090613dae565b80601f01602080910402602001604051908101604052809291908181526020018280546116dc90613dae565b80156117295780601f106116fe57610100808354040283529160200191611729565b820191906000526020600020905b81548152906001019060200180831161170c57829003601f168201915b50505050509080600301805461173e90613dae565b80601f016020809104026020016040519081016040528092919081815260200182805461176a90613dae565b80156117b75780601f1061178c576101008083540402835291602001916117b7565b820191906000526020600020905b81548152906001019060200180831161179a57829003601f168201915b5050505050908060040180546117cc90613dae565b80601f01602080910402602001604051908101604052809291908181526020018280546117f890613dae565b80156118455780601f1061181a57610100808354040283529160200191611845565b820191906000526020600020905b81548152906001019060200180831161182857829003601f168201915b50505050509080600501805461185a90613dae565b80601f016020809104026020016040519081016040528092919081815260200182805461188690613dae565b80156118d35780601f106118a8576101008083540402835291602001916118d3565b820191906000526020600020905b8154815290600101906020018083116118b657829003601f168201915b5050505050908060060180546118e890613dae565b80601f016020809104026020016040519081016040528092919081815260200182805461191490613dae565b80156119615780601f1061193657610100808354040283529160200191611961565b820191906000526020600020905b81548152906001019060200180831161194457829003601f168201915b5050505050905087565b60606000600560008481526020019081526020016000206040518060a001604052908160008201805461199d90613dae565b80601f01602080910402602001604051908101604052809291908181526020018280546119c990613dae565b8015611a165780601f106119eb57610100808354040283529160200191611a16565b820191906000526020600020905b8154815290600101906020018083116119f957829003601f168201915b50505050508152602001600182018054611a2f90613dae565b80601f0160208091040260200160405190810160405280929190818152602001828054611a5b90613dae565b8015611aa85780601f10611a7d57610100808354040283529160200191611aa8565b820191906000526020600020905b815481529060010190602001808311611a8b57829003601f168201915b50505050508152602001600282018054611ac190613dae565b80601f0160208091040260200160405190810160405280929190818152602001828054611aed90613dae565b8015611b3a5780601f10611b0f57610100808354040283529160200191611b3a565b820191906000526020600020905b815481529060010190602001808311611b1d57829003601f168201915b50505050508152602001600382018054611b5390613dae565b80601f0160208091040260200160405190810160405280929190818152602001828054611b7f90613dae565b8015611bcc5780601f10611ba157610100808354040283529160200191611bcc565b820191906000526020600020905b815481529060010190602001808311611baf57829003601f168201915b50505050508152602001600482018054611be590613dae565b80601f0160208091040260200160405190810160405280929190818152602001828054611c1190613dae565b8015611c5e5780601f10611c3357610100808354040283529160200191611c5e565b820191906000526020600020905b815481529060010190602001808311611c4157829003601f168201915b50505091909252505050606001519392505050565b60606000600160008481526020019081526020016000206040518060a0016040529081600082018054610faf90613dae565b60606000600560008481526020019081526020016000206040518060a001604052908160008201805461122990613dae565b60606000600160008481526020019081526020016000206040518060a0016040529081600082018054611d0990613dae565b80601f0160208091040260200160405190810160405280929190818152602001828054611d3590613dae565b8015611d825780601f10611d5757610100808354040283529160200191611d82565b820191906000526020600020905b815481529060010190602001808311611d6557829003601f168201915b50505050508152602001600182018054611d9b90613dae565b80601f0160208091040260200160405190810160405280929190818152602001828054611dc790613dae565b8015611e145780601f10611de957610100808354040283529160200191611e14565b820191906000526020600020905b815481529060010190602001808311611df757829003601f168201915b50505050508152602001600282018054611e2d90613dae565b80601f0160208091040260200160405190810160405280929190818152602001828054611e5990613dae565b8015611ea65780601f10611e7b57610100808354040283529160200191611ea6565b820191906000526020600020905b815481529060010190602001808311611e8957829003601f168201915b50505050508152602001600382018054611ebf90613dae565b80601f0160208091040260200160405190810160405280929190818152602001828054611eeb90613dae565b8015611f385780601f10611f0d57610100808354040283529160200191611f38565b820191906000526020600020905b815481529060010190602001808311611f1b57829003601f168201915b50505050508152602001600482018054611f5190613dae565b80601f0160208091040260200160405190810160405280929190818152602001828054611f7d90613dae565b8015611fca5780601f10611f9f57610100808354040283529160200191611fca565b820191906000526020600020905b815481529060010190602001808311611fad57829003601f168201915b50505091909252505050604001519392505050565b600560205260009081526040902080548190611ffa90613dae565b80601f016020809104026020016040519081016040528092919081815260200182805461202690613dae565b80156120735780601f1061204857610100808354040283529160200191612073565b820191906000526020600020905b81548152906001019060200180831161205657829003601f168201915b50505050509080600101805461208890613dae565b80601f01602080910402602001604051908101604052809291908181526020018280546120b490613dae565b80156121015780601f106120d657610100808354040283529160200191612101565b820191906000526020600020905b8154815290600101906020018083116120e457829003601f168201915b50505050509080600201805461211690613dae565b80601f016020809104026020016040519081016040528092919081815260200182805461214290613dae565b801561218f5780601f106121645761010080835404028352916020019161218f565b820191906000526020600020905b81548152906001019060200180831161217257829003601f168201915b5050505050908060030180546121a490613dae565b80601f01602080910402602001604051908101604052809291908181526020018280546121d090613dae565b801561221d5780601f106121f25761010080835404028352916020019161221d565b820191906000526020600020905b81548152906001019060200180831161220057829003601f168201915b50505050509080600401805461223290613dae565b80601f016020809104026020016040519081016040528092919081815260200182805461225e90613dae565b80156122ab5780601f10612280576101008083540402835291602001916122ab565b820191906000526020600020905b81548152906001019060200180831161228e57829003601f168201915b5050505050905085565b60606000600560008481526020019081526020016000206040518060a0016040529081600082018054611d0990613dae565b600160205260009081526040902080548190611ffa90613dae565b60606000600360008481526020019081526020016000206040518060e001604052908160008201805461233490613dae565b80601f016020809104026020016040519081016040528092919081815260200182805461236090613dae565b80156123ad5780601f10612382576101008083540402835291602001916123ad565b820191906000526020600020905b81548152906001019060200180831161239057829003601f168201915b505050505081526020016001820180546123c690613dae565b80601f01602080910402602001604051908101604052809291908181526020018280546123f290613dae565b801561243f5780601f106124145761010080835404028352916020019161243f565b820191906000526020600020905b81548152906001019060200180831161242257829003601f168201915b5050505050815260200160028201805461245890613dae565b80601f016020809104026020016040519081016040528092919081815260200182805461248490613dae565b80156124d15780601f106124a6576101008083540402835291602001916124d1565b820191906000526020600020905b8154815290600101906020018083116124b457829003601f168201915b505050505081526020016003820180546124ea90613dae565b80601f016020809104026020016040519081016040528092919081815260200182805461251690613dae565b80156125635780601f1061253857610100808354040283529160200191612563565b820191906000526020600020905b81548152906001019060200180831161254657829003601f168201915b5050505050815260200160048201805461257c90613dae565b80601f01602080910402602001604051908101604052809291908181526020018280546125a890613dae565b80156125f55780601f106125ca576101008083540402835291602001916125f5565b820191906000526020600020905b8154815290600101906020018083116125d857829003601f168201915b5050505050815260200160058201805461260e90613dae565b80601f016020809104026020016040519081016040528092919081815260200182805461263a90613dae565b80156126875780601f1061265c57610100808354040283529160200191612687565b820191906000526020600020905b81548152906001019060200180831161266a57829003601f168201915b50505050508152602001600682018054610ac590613dae565b60606000600360008481526020019081526020016000206040518060e00160405290816000820180546126d290613dae565b80601f01602080910402602001604051908101604052809291908181526020018280546126fe90613dae565b801561274b5780601f106127205761010080835404028352916020019161274b565b820191906000526020600020905b81548152906001019060200180831161272e57829003601f168201915b5050505050815260200160018201805461276490613dae565b80601f016020809104026020016040519081016040528092919081815260200182805461279090613dae565b80156127dd5780601f106127b2576101008083540402835291602001916127dd565b820191906000526020600020905b8154815290600101906020018083116127c057829003601f168201915b505050505081526020016002820180546127f690613dae565b80601f016020809104026020016040519081016040528092919081815260200182805461282290613dae565b801561286f5780601f106128445761010080835404028352916020019161286f565b820191906000526020600020905b81548152906001019060200180831161285257829003601f168201915b5050505050815260200160038201805461288890613dae565b80601f01602080910402602001604051908101604052809291908181526020018280546128b490613dae565b80156129015780601f106128d657610100808354040283529160200191612901565b820191906000526020600020905b8154815290600101906020018083116128e457829003601f168201915b5050505050815260200160048201805461291a90613dae565b80601f016020809104026020016040519081016040528092919081815260200182805461294690613dae565b80156129935780601f1061296857610100808354040283529160200191612993565b820191906000526020600020905b81548152906001019060200180831161297657829003601f168201915b505050505081526020016005820180546129ac90613dae565b80601f01602080910402602001604051908101604052809291908181526020018280546129d890613dae565b8015612a255780601f106129fa57610100808354040283529160200191612a25565b820191906000526020600020905b815481529060010190602001808311612a0857829003601f168201915b50505050508152602001600682018054611be590613dae565b60606000600360008481526020019081526020016000206040518060e0016040529081600082018054612a7090613dae565b80601f0160208091040260200160405190810160405280929190818152602001828054612a9c90613dae565b8015612ae95780601f10612abe57610100808354040283529160200191612ae9565b820191906000526020600020905b815481529060010190602001808311612acc57829003601f168201915b50505050508152602001600182018054612b0290613dae565b80601f0160208091040260200160405190810160405280929190818152602001828054612b2e90613dae565b8015612b7b5780601f10612b5057610100808354040283529160200191612b7b565b820191906000526020600020905b815481529060010190602001808311612b5e57829003601f168201915b50505050508152602001600282018054612b9490613dae565b80601f0160208091040260200160405190810160405280929190818152602001828054612bc090613dae565b8015612c0d5780601f10612be257610100808354040283529160200191612c0d565b820191906000526020600020905b815481529060010190602001808311612bf057829003601f168201915b50505050508152602001600382018054612c2690613dae565b80601f0160208091040260200160405190810160405280929190818152602001828054612c5290613dae565b8015612c9f5780601f10612c7457610100808354040283529160200191612c9f565b820191906000526020600020905b815481529060010190602001808311612c8257829003601f168201915b50505050508152602001600482018054612cb890613dae565b80601f0160208091040260200160405190810160405280929190818152602001828054612ce490613dae565b8015612d315780601f10612d0657610100808354040283529160200191612d31565b820191906000526020600020905b815481529060010190602001808311612d1457829003601f168201915b50505050508152602001600582018054612d4a90613dae565b80601f0160208091040260200160405190810160405280929190818152602001828054612d7690613dae565b8015612dc35780601f10612d9857610100808354040283529160200191612dc3565b820191906000526020600020905b815481529060010190602001808311612da657829003601f168201915b50505050508152602001600682018054612ddc90613dae565b80601f0160208091040260200160405190810160405280929190818152602001828054612e0890613dae565b8015612e555780601f10612e2a57610100808354040283529160200191612e55565b820191906000526020600020905b815481529060010190602001808311612e3857829003601f168201915b5050509190925250505060a001519392505050565b60606000600560008481526020019081526020016000206040518060a001604052908160008201805461087d90613dae565b6040805160a0810182528681526020808201879052818301869052606082018590526080820184905260008054815260018252929092208151805192939192612ee892849201906138e8565b506020828101518051612f0192600185019201906138e8565b5060408201518051612f1d9160028401916020909101906138e8565b5060608201518051612f399160038401916020909101906138e8565b5060808201518051612f559160048401916020909101906138e8565b5050600080546040519092507f1ed675bb725b3a8b0434b9ee956fe05e4c0e79f9dc67c3f1a717a5bb1fd88fd39190a260008054908061156d83613e02565b60606000600360008481526020019081526020016000206040518060e0016040529081600082018054612fc690613dae565b80601f0160208091040260200160405190810160405280929190818152602001828054612ff290613dae565b801561303f5780601f106130145761010080835404028352916020019161303f565b820191906000526020600020905b81548152906001019060200180831161302257829003601f168201915b5050505050815260200160018201805461305890613dae565b80601f016020809104026020016040519081016040528092919081815260200182805461308490613dae565b80156130d15780601f106130a6576101008083540402835291602001916130d1565b820191906000526020600020905b8154815290600101906020018083116130b457829003601f168201915b505050505081526020016002820180546130ea90613dae565b80601f016020809104026020016040519081016040528092919081815260200182805461311690613dae565b80156131635780601f1061313857610100808354040283529160200191613163565b820191906000526020600020905b81548152906001019060200180831161314657829003601f168201915b5050505050815260200160038201805461317c90613dae565b80601f01602080910402602001604051908101604052809291908181526020018280546131a890613dae565b80156131f55780601f106131ca576101008083540402835291602001916131f5565b820191906000526020600020905b8154815290600101906020018083116131d857829003601f168201915b5050505050815260200160048201805461320e90613dae565b80601f016020809104026020016040519081016040528092919081815260200182805461323a90613dae565b80156132875780601f1061325c57610100808354040283529160200191613287565b820191906000526020600020905b81548152906001019060200180831161326a57829003601f168201915b505050505081526020016005820180546132a090613dae565b80601f01602080910402602001604051908101604052809291908181526020018280546132cc90613dae565b80156133195780601f106132ee57610100808354040283529160200191613319565b820191906000526020600020905b8154815290600101906020018083116132fc57829003601f168201915b50505050508152602001600682018054611f5190613dae565b60606000600360008481526020019081526020016000206040518060e001604052908160008201805461336490613dae565b80601f016020809104026020016040519081016040528092919081815260200182805461339090613dae565b80156133dd5780601f106133b2576101008083540402835291602001916133dd565b820191906000526020600020905b8154815290600101906020018083116133c057829003601f168201915b505050505081526020016001820180546133f690613dae565b80601f016020809104026020016040519081016040528092919081815260200182805461342290613dae565b801561346f5780601f106134445761010080835404028352916020019161346f565b820191906000526020600020905b81548152906001019060200180831161345257829003601f168201915b5050505050815260200160028201805461348890613dae565b80601f01602080910402602001604051908101604052809291908181526020018280546134b490613dae565b80156135015780601f106134d657610100808354040283529160200191613501565b820191906000526020600020905b8154815290600101906020018083116134e457829003601f168201915b5050505050815260200160038201805461351a90613dae565b80601f016020809104026020016040519081016040528092919081815260200182805461354690613dae565b80156135935780601f1061356857610100808354040283529160200191613593565b820191906000526020600020905b81548152906001019060200180831161357657829003601f168201915b505050505081526020016004820180546135ac90613dae565b80601f01602080910402602001604051908101604052809291908181526020018280546135d890613dae565b80156136255780601f106135fa57610100808354040283529160200191613625565b820191906000526020600020905b81548152906001019060200180831161360857829003601f168201915b5050505050815260200160058201805461363e90613dae565b80601f016020809104026020016040519081016040528092919081815260200182805461366a90613dae565b80156136b75780601f1061368c576101008083540402835291602001916136b7565b820191906000526020600020905b81548152906001019060200180831161369a57829003601f168201915b505050505081526020016006820180546136d090613dae565b80601f01602080910402602001604051908101604052809291908181526020018280546136fc90613dae565b80156137495780601f1061371e57610100808354040283529160200191613749565b820191906000526020600020905b81548152906001019060200180831161372c57829003601f168201915b5050509190925250505060c001519392505050565b60606000600160008481526020019081526020016000206040518060a001604052908160008201805461199d90613dae565b6040518060e001604052808881526020018781526020018681526020018581526020018481526020018381526020018281525060036000600254815260200190815260200160002060008201518160000190805190602001906137f49291906138e8565b50602082810151805161380d92600185019201906138e8565b50604082015180516138299160028401916020909101906138e8565b50606082015180516138459160038401916020909101906138e8565b50608082015180516138619160048401916020909101906138e8565b5060a0820151805161387d9160058401916020909101906138e8565b5060c082015180516138999160068401916020909101906138e8565b50506002546040519091507f047fc43588f317dc391f58c3af2cffda4b0938160583302dd579fcce9e9b0fd790600090a2600280549060006138da83613e02565b919050555050505050505050565b8280546138f490613dae565b90600052602060002090601f016020900481019282613916576000855561395c565b82601f1061392f57805160ff191683800117855561395c565b8280016001018555821561395c579182015b8281111561395c578251825591602001919060010190613941565b5061396892915061396c565b5090565b5b80821115613968576000815560010161396d565b60006020828403121561399357600080fd5b5035919050565b6000815180845260005b818110156139c0576020818501810151868301820152016139a4565b818111156139d2576000602083870101525b50601f01601f19169290920160200192915050565b6020815260006139fa602083018461399a565b9392505050565b7f4e487b7100000000000000000000000000000000000000000000000000000000600052604160045260246000fd5b600082601f830112613a4157600080fd5b813567ffffffffffffffff80821115613a5c57613a5c613a01565b604051601f8301601f19908116603f01168101908282118183101715613a8457613a84613a01565b81604052838152866020858801011115613a9d57600080fd5b836020870160208301376000602085830101528094505050505092915050565b600080600080600060a08688031215613ad557600080fd5b853567ffffffffffffffff80821115613aed57600080fd5b613af989838a01613a30565b96506020880135915080821115613b0f57600080fd5b613b1b89838a01613a30565b95506040880135915080821115613b3157600080fd5b613b3d89838a01613a30565b94506060880135915080821115613b5357600080fd5b613b5f89838a01613a30565b93506080880135915080821115613b7557600080fd5b50613b8288828901613a30565b9150509295509295909350565b60e081526000613ba260e083018a61399a565b8281036020840152613bb4818a61399a565b90508281036040840152613bc8818961399a565b90508281036060840152613bdc818861399a565b90508281036080840152613bf0818761399a565b905082810360a0840152613c04818661399a565b905082810360c0840152613c18818561399a565b9a9950505050505050505050565b60a081526000613c3960a083018861399a565b8281036020840152613c4b818861399a565b90508281036040840152613c5f818761399a565b90508281036060840152613c73818661399a565b90508281036080840152613c87818561399a565b98975050505050505050565b600080600080600080600060e0888a031215613cae57600080fd5b873567ffffffffffffffff80821115613cc657600080fd5b613cd28b838c01613a30565b985060208a0135915080821115613ce857600080fd5b613cf48b838c01613a30565b975060408a0135915080821115613d0a57600080fd5b613d168b838c01613a30565b965060608a0135915080821115613d2c57600080fd5b613d388b838c01613a30565b955060808a0135915080821115613d4e57600080fd5b613d5a8b838c01613a30565b945060a08a0135915080821115613d7057600080fd5b613d7c8b838c01613a30565b935060c08a0135915080821115613d9257600080fd5b50613d9f8a828b01613a30565b91505092959891949750929550565b600281046001821680613dc257607f821691505b60208210811415613dfc577f4e487b7100000000000000000000000000000000000000000000000000000000600052602260045260246000fd5b50919050565b6000600019821415613e3d577f4e487b7100000000000000000000000000000000000000000000000000000000600052601160045260246000fd5b506001019056fea2646970667358221220ba5ab0f9e412666ce7abd6aa8c5f85a4ed96c0a499cbd6d0aacd8a11e6c3e33d64736f6c634300080b0033",
  "immutableReferences": {},
  "source": "pragma solidity >= 0.8.11 <= 0.8.11;\r\npragma experimental ABIEncoderV2;\r\n//Charity solidity code\r\ncontract Charity {\r\n\r\n    uint public userCount = 0; \r\n    mapping(uint => user) public userList; \r\n     struct user\r\n     {\r\n       string person_name;\r\n       string phone;\r\n       string email;\r\n       string password;\r\n       string user_type;\r\n     }\r\n \r\n   // events \r\n   event userCreated(uint indexed _userId);\r\n   \r\n   //function  to save user details to Blockchain\r\n   function saveUser(string memory pname, string memory phone, string memory email, string memory pass, string memory ut) public {\r\n      userList[userCount] = user(pname, phone, email, pass, ut);\r\n      emit userCreated(userCount);\r\n      userCount++;\r\n    }\r\n\r\n     //get user count\r\n    function getUserCount()  public view returns (uint) {\r\n          return  userCount;\r\n    }\r\n\r\n    uint public auctionCount = 0; \r\n    mapping(uint => auction) public auctionList; \r\n     struct auction\r\n     {\r\n       string auctioner_name;\r\n       string auction_id;\r\n       string auction_details;\r\n       string minimum_amount;\r\n       string start_date;\r\n       string end_date;   \r\n       string auction_category;       \r\n     }\r\n \r\n   // events \r\n   event auctionCreated(uint indexed _auctionId);\r\n   \r\n   //function  to save auction details to Blockchain\r\n   function saveAuction(string memory aname, string memory aid, string memory ad, string memory ma, string memory sd, string memory edate, string memory cat) public {\r\n      auctionList[auctionCount] = auction(aname, aid, ad, ma, sd, edate, cat);\r\n      emit auctionCreated(auctionCount);\r\n      auctionCount++;\r\n    }\r\n\r\n    //get auction count\r\n    function getAuctionCount()  public view returns (uint) {\r\n          return  auctionCount;\r\n    }\r\n\r\n    uint public bidCount = 0; \r\n    mapping(uint => bid) public bidList; \r\n     struct bid\r\n     {\r\n       string auction_id;\r\n       string bidder;\r\n       string amount;\r\n       string bid_date;\r\n       string transaction_type;\r\n     }\r\n \r\n   // events \r\n   event bidCreated(uint indexed _bidId);\r\n   \r\n   //function  to save Bidding details to Blockchain\r\n   function saveBid(string memory aid, string memory bidder_name, string memory bid_amount, string memory bidding_date, string memory ttype) public {\r\n      bidList[bidCount] = bid(aid, bidder_name, bid_amount, bidding_date, ttype);\r\n      emit bidCreated(bidCount);\r\n     bidCount++;\r\n    }\r\n\r\n     //get bid count\r\n    function getBidCount()  public view returns (uint) {\r\n          return  bidCount;\r\n    }\r\n\r\n\r\n    function getPersonname(uint i) public view returns (string memory) {\r\n        user memory doc = userList[i];\r\n\treturn doc.person_name;\r\n    }\r\n\r\n    function getPassword(uint i) public view returns (string memory) {\r\n        user memory doc = userList[i];\r\n\treturn doc.password;\r\n    }\r\n\r\n    function getPhone(uint i) public view returns (string memory) {\r\n        user memory doc = userList[i];\r\n\treturn doc.phone;\r\n    }    \r\n\r\n    function getEmail(uint i) public view returns (string memory) {\r\n        user memory doc = userList[i];\r\n\treturn doc.email;\r\n    }\r\n\r\n    function getUserType(uint i) public view returns (string memory) {\r\n        user memory doc = userList[i];\r\n\treturn doc.user_type;\r\n    }\r\n\r\n   function getAuctionName(uint i) public view returns (string memory) {\r\n        auction memory doc = auctionList[i];\r\n\treturn doc.auctioner_name;\r\n    }\r\n\r\n    function getAuctionId(uint i) public view returns (string memory) {\r\n        auction memory doc = auctionList[i];\r\n\treturn doc.auction_id;\r\n    }\r\n\r\n    function getAuctionDetails(uint i) public view returns (string memory) {\r\n        auction memory doc = auctionList[i];\r\n\treturn doc.auction_details;\r\n    }\r\n    \r\n    function getMinimumAmount(uint i) public view returns (string memory) {\r\n        auction memory doc = auctionList[i];\r\n\treturn doc.minimum_amount;\r\n    }\r\n\r\n    function getStartDate(uint i) public view returns (string memory) {\r\n        auction memory doc = auctionList[i];\r\n\treturn doc.start_date;\r\n    }\r\n\r\n    function getEnddate(uint i) public view returns (string memory) {\r\n        auction memory doc = auctionList[i];\r\n\treturn doc.end_date;\r\n    }\r\n\r\n    function getCategory(uint i) public view returns (string memory) {\r\n        auction memory doc = auctionList[i];\r\n\treturn doc.auction_category;\r\n    }\r\n\r\n    function getBidAuctionId(uint i) public view returns (string memory) {\r\n        bid memory doc = bidList[i];\r\n\treturn doc.auction_id;\r\n    }\r\n\r\n    function getBidder(uint i) public view returns (string memory) {\r\n        bid memory doc = bidList[i];\r\n\treturn doc.bidder;\r\n    }\r\n\r\n    function getAmount(uint i) public view returns (string memory) {\r\n        bid memory doc = bidList[i];\r\n\treturn doc.amount;\r\n    }\r\n\r\n    function getBidDate(uint i) public view returns (string memory) {\r\n        bid memory doc = bidList[i];\r\n\treturn doc.bid_date;\r\n    }\r\n    function getTransactionType(uint i) public view returns (string memory) {\r\n        bid memory doc = bidList[i];\r\n\treturn doc.transaction_type;\r\n    }\r\n    \r\n}",
  "sourcePath": "C:\\Users\\Admin\\Desktop\\Blockchain\\hello-eth\\node_modules\\.bin\\contracts\\Charity.sol",
  "compiler": {
    "name": "solc",
    "version": "0.8.11+commit.d7f03943.Emscripten.clang"
  },
  "schemaVersion": "3.4.4",
  "updatedAt": "2025-04-03T05:22:01.702Z",
  "networkType": "ethereum",
  "devdoc": {
    "kind": "dev",
    "methods": {},
    "version": 1
  },
  "userdoc": {
    "kind": "user",
    "methods": {},
    "version": 1
  }
}